{
  "contractName": "ArtMarketplace",
  "abi": [
    {
      "inputs": [
        {
          "internalType": "contract ArtToken",
          "name": "_token",
          "type": "address"
        }
      ],
      "stateMutability": "nonpayable",
      "type": "constructor"
    },
    {
      "anonymous": false,
      "inputs": [
        {
          "indexed": false,
          "internalType": "uint256",
          "name": "id",
          "type": "uint256"
        },
        {
          "indexed": false,
          "internalType": "uint256",
          "name": "tokenId",
          "type": "uint256"
        },
        {
          "indexed": false,
          "internalType": "uint256",
          "name": "price",
          "type": "uint256"
        }
      ],
      "name": "itemAddedForSale",
      "type": "event"
    },
    {
      "anonymous": false,
      "inputs": [
        {
          "indexed": false,
          "internalType": "uint256",
          "name": "id",
          "type": "uint256"
        },
        {
          "indexed": false,
          "internalType": "address",
          "name": "buyer",
          "type": "address"
        },
        {
          "indexed": false,
          "internalType": "uint256",
          "name": "price",
          "type": "uint256"
        }
      ],
      "name": "itemSold",
      "type": "event"
    },
    {
      "inputs": [
        {
          "internalType": "uint256",
          "name": "",
          "type": "uint256"
        }
      ],
      "name": "activeItems",
      "outputs": [
        {
          "internalType": "bool",
          "name": "",
          "type": "bool"
        }
      ],
      "stateMutability": "view",
      "type": "function",
      "constant": true
    },
    {
      "inputs": [
        {
          "internalType": "uint256",
          "name": "",
          "type": "uint256"
        }
      ],
      "name": "itemsForSale",
      "outputs": [
        {
          "internalType": "uint256",
          "name": "id",
          "type": "uint256"
        },
        {
          "internalType": "uint256",
          "name": "tokenId",
          "type": "uint256"
        },
        {
          "internalType": "address payable",
          "name": "seller",
          "type": "address"
        },
        {
          "internalType": "uint256",
          "name": "price",
          "type": "uint256"
        },
        {
          "internalType": "bool",
          "name": "isSold",
          "type": "bool"
        }
      ],
      "stateMutability": "view",
      "type": "function",
      "constant": true
    },
    {
      "inputs": [
        {
          "internalType": "uint256",
          "name": "tokenId",
          "type": "uint256"
        },
        {
          "internalType": "uint256",
          "name": "price",
          "type": "uint256"
        }
      ],
      "name": "putItemForSale",
      "outputs": [
        {
          "internalType": "uint256",
          "name": "",
          "type": "uint256"
        }
      ],
      "stateMutability": "nonpayable",
      "type": "function"
    },
    {
      "inputs": [
        {
          "internalType": "uint256",
          "name": "id",
          "type": "uint256"
        }
      ],
      "name": "buyItem",
      "outputs": [],
      "stateMutability": "payable",
      "type": "function",
      "payable": true
    },
    {
      "inputs": [],
      "name": "totalItemsForSale",
      "outputs": [
        {
          "internalType": "uint256",
          "name": "",
          "type": "uint256"
        }
      ],
      "stateMutability": "view",
      "type": "function",
      "constant": true
    }
  ],
  "bytecode": "0x608060405234801561001057600080fd5b50604051610b85380380610b8583398101604081905261002f91610054565b600080546001600160a01b0319166001600160a01b0392909216919091179055610084565b60006020828403121561006657600080fd5b81516001600160a01b038116811461007d57600080fd5b9392505050565b610af2806100936000396000f3fe60806040526004361061004a5760003560e01c8063092d0afc1461004f5780639c318c7b146100ac578063e7fb74c7146100ec578063ec8120c914610101578063f4f3576414610120575b600080fd5b34801561005b57600080fd5b5061006f61006a366004610a55565b610140565b6040805195865260208601949094526001600160a01b039092169284019290925260608301919091521515608082015260a0015b60405180910390f35b3480156100b857600080fd5b506100dc6100c7366004610a55565b60026020526000908152604090205460ff1681565b60405190151581526020016100a3565b6100ff6100fa366004610a55565b61018e565b005b34801561010d57600080fd5b506001545b6040519081526020016100a3565b34801561012c57600080fd5b5061011261013b366004610a6e565b610664565b6001818154811061015057600080fd5b60009182526020909120600590910201805460018201546002830154600384015460049094015492945090926001600160a01b039091169160ff1685565b6001548190811080156101c4575080600182815481106101b0576101b0610aa6565b906000526020600020906005020160000154145b61020b5760405162461bcd60e51b8152602060048201526013602482015272436f756c64206e6f742066696e64206974656d60681b60448201526064015b60405180910390fd5b816001818154811061021f5761021f610aa6565b600091825260209091206004600590920201015460ff161561027a5760405162461bcd60e51b8152602060048201526014602482015273125d195b481a5cc8185b1c9958591e481cdbdb1960621b6044820152606401610202565b6001838154811061028d5761028d610aa6565b6000918252602082206005919091020160010154905460405163020604bf60e21b81526004810183905230916001600160a01b03169063081812fc9060240160206040518083038186803b1580156102e457600080fd5b505afa1580156102f8573d6000803e3d6000fd5b505050506040513d601f19601f8201168201806040525081019061031c9190610a25565b6001600160a01b03161461036b5760405162461bcd60e51b815260206004820152601660248201527513585c9ad95d081a5cc81b9bdd08185c1c1c9bdd995960521b6044820152606401610202565b6001848154811061037e5761037e610aa6565b9060005260206000209060050201600301543410156103d75760405162461bcd60e51b8152602060048201526015602482015274139bdd08195b9bdd59da08199d5b991cc81cd95b9d605a1b6044820152606401610202565b600184815481106103ea576103ea610aa6565b60009182526020909120600590910201600201546001600160a01b031633141561041357600080fd5b600180858154811061042757610427610aa6565b906000526020600020906005020160040160006101000a81548160ff0219169083151502179055506000600260006001878154811061046857610468610aa6565b906000526020600020906005020160010154815260200190815260200160002060006101000a81548160ff02191690831515021790555060008054906101000a90046001600160a01b03166001600160a01b03166342842e0e600186815481106104d4576104d4610aa6565b906000526020600020906005020160020160009054906101000a90046001600160a01b0316336001888154811061050d5761050d610aa6565b60009182526020909120600160059092020101546040516001600160e01b031960e086901b1681526001600160a01b0393841660048201529290911660248301526044820152606401600060405180830381600087803b15801561057057600080fd5b505af1158015610584573d6000803e3d6000fd5b505050506001848154811061059b5761059b610aa6565b600091825260208220600260059092020101546040516001600160a01b03909116913480156108fc02929091818181858888f193505050501580156105e4573d6000803e3d6000fd5b507f8164c6f8917e418c49813e4586897c7067de5a886aa1bea980cd11fa57d4826484336001878154811061061b5761061b610aa6565b906000526020600020906005020160030154604051610656939291909283526001600160a01b03919091166020830152604082015260600190565b60405180910390a150505050565b600080546040516331a9108f60e11b815260048101859052849133916001600160a01b0390911690636352211e9060240160206040518083038186803b1580156106ad57600080fd5b505afa1580156106c1573d6000803e3d6000fd5b505050506040513d601f19601f820116820180604052508101906106e59190610a25565b6001600160a01b03161461073b5760405162461bcd60e51b815260206004820152601c60248201527f53656e64657220646f6573206e6f74206f776e20746865206974656d000000006044820152606401610202565b60005460405163020604bf60e21b815260048101869052859130916001600160a01b039091169063081812fc9060240160206040518083038186803b15801561078357600080fd5b505afa158015610797573d6000803e3d6000fd5b505050506040513d601f19601f820116820180604052508101906107bb9190610a25565b6001600160a01b03161461080a5760405162461bcd60e51b815260206004820152601660248201527513585c9ad95d081a5cc81b9bdd08185c1c1c9bdd995960521b6044820152606401610202565b60008581526002602052604090205460ff16156108695760405162461bcd60e51b815260206004820152601b60248201527f4974656d20697320616c726561647920757020666f722073616c6500000000006044820152606401610202565b600180546040805160a08101825282815260208082018a815233838501908152606084018b8152600060808601818152888a018a558982529551600589027fb10e2d527612073b26eecdfd717e6a320cf44b4afac2b0732d9fcbe2b7fa0cf681019190915593517fb10e2d527612073b26eecdfd717e6a320cf44b4afac2b0732d9fcbe2b7fa0cf785015591517fb10e2d527612073b26eecdfd717e6a320cf44b4afac2b0732d9fcbe2b7fa0cf8840180546001600160a01b03929092166001600160a01b0319909216919091179055517fb10e2d527612073b26eecdfd717e6a320cf44b4afac2b0732d9fcbe2b7fa0cf983015592517fb10e2d527612073b26eecdfd717e6a320cf44b4afac2b0732d9fcbe2b7fa0cfa909101805491151560ff199283161790558a83526002909152919020805490911683179055815490918291829081106109bc576109bc610aa6565b906000526020600020906005020160000154146109db576109db610a90565b60408051828152602081018890529081018690527fafd8780f802588de8705083b0f6a33ac59b8d0228c80f9babe0549c1621c33f89060600160405180910390a195945050505050565b600060208284031215610a3757600080fd5b81516001600160a01b0381168114610a4e57600080fd5b9392505050565b600060208284031215610a6757600080fd5b5035919050565b60008060408385031215610a8157600080fd5b50508035926020909101359150565b634e487b7160e01b600052600160045260246000fd5b634e487b7160e01b600052603260045260246000fdfea2646970667358221220d0c8ae7f907c7e71090942b205aaa149b63688a54a512c1eab306726af46ee9d64736f6c63430008070033",
  "immutableReferences": {},
  "source": "// SPDX-License-Identifier: MIT\npragma solidity ^0.8.0;\n\nimport \"./ArtToken.sol\";\n\ncontract ArtMarketplace {\n  ArtToken private token;\n\n  struct ItemForSale {\n    uint256 id;\n    uint256 tokenId;\n    address payable seller;\n    uint256 price;\n    bool isSold;\n  }\n\n  ItemForSale[] public itemsForSale;\n  mapping(uint256 => bool) public activeItems; // tokenId => ativo?\n\n  event itemAddedForSale(uint256 id, uint256 tokenId, uint256 price);\n  event itemSold(uint256 id, address buyer, uint256 price);\n\n  constructor(ArtToken _token) {\n      token = _token;\n  }\n\n  modifier OnlyItemOwner(uint256 tokenId){\n    require(token.ownerOf(tokenId) == msg.sender, \"Sender does not own the item\");\n    _;\n  }\n\n  modifier HasTransferApproval(uint256 tokenId){\n    require(token.getApproved(tokenId) == address(this), \"Market is not approved\");\n    _;\n  }\n\n  modifier ItemExists(uint256 id){\n    require(id < itemsForSale.length && itemsForSale[id].id == id, \"Could not find item\");\n    _;\n  }\n\n  modifier IsForSale(uint256 id){\n    require(!itemsForSale[id].isSold, \"Item is already sold\");\n    _;\n  }\n\n  function putItemForSale(uint256 tokenId, uint256 price) \n    OnlyItemOwner(tokenId) \n    HasTransferApproval(tokenId) \n    external \n    returns (uint256){\n      require(!activeItems[tokenId], \"Item is already up for sale\");\n\n      uint256 newItemId = itemsForSale.length;\n      itemsForSale.push(ItemForSale({\n        id: newItemId,\n        tokenId: tokenId,\n        seller: payable(msg.sender),\n        price: price,\n        isSold: false\n      }));\n      activeItems[tokenId] = true;\n\n      assert(itemsForSale[newItemId].id == newItemId);\n      emit itemAddedForSale(newItemId, tokenId, price);\n      return newItemId;\n  }\n\n  function buyItem(uint256 id) \n    ItemExists(id)\n    IsForSale(id)\n    HasTransferApproval(itemsForSale[id].tokenId)\n    payable \n    external {\n      require(msg.value >= itemsForSale[id].price, \"Not enough funds sent\");\n      require(msg.sender != itemsForSale[id].seller);\n\n      itemsForSale[id].isSold = true;\n      activeItems[itemsForSale[id].tokenId] = false;\n      token.safeTransferFrom(itemsForSale[id].seller, msg.sender, itemsForSale[id].tokenId);\n      itemsForSale[id].seller.transfer(msg.value);\n\n      emit itemSold(id, msg.sender, itemsForSale[id].price);\n    }\n\n  function totalItemsForSale() external view returns(uint256) {\n    return itemsForSale.length;\n  }\n}\n\n//TODO:\n// - don't support bidding\n// - the user can't withdraw the item\n",
  "sourcePath": "/Users/kevin/Documents/GitHub/NFT-Marketplace/contracts/ArtMarketplace.sol",
  "compiler": {
    "name": "solc",
    "version": "0.8.7+commit.e28d00a7.Emscripten.clang"
  },
  "schemaVersion": "3.4.16",
  "updatedAt": "2025-09-05T12:12:33.812Z",
  "networkType": "ethereum",
  "devdoc": {
    "kind": "dev",
    "methods": {},
    "version": 1
  },
  "userdoc": {
    "kind": "user",
    "methods": {},
    "version": 1
  }
}